{
  "contractName": "PatientPermissions",
  "abi": [
    {
      "inputs": [],
      "stateMutability": "nonpayable",
      "type": "constructor"
    },
    {
      "anonymous": false,
      "inputs": [
        {
          "indexed": true,
          "internalType": "address",
          "name": "provider",
          "type": "address"
        }
      ],
      "name": "AccessGranted",
      "type": "event"
    },
    {
      "anonymous": false,
      "inputs": [
        {
          "indexed": true,
          "internalType": "address",
          "name": "provider",
          "type": "address"
        }
      ],
      "name": "AccessRevoked",
      "type": "event"
    },
    {
      "inputs": [],
      "name": "patient",
      "outputs": [
        {
          "internalType": "address",
          "name": "",
          "type": "address"
        }
      ],
      "stateMutability": "view",
      "type": "function"
    },
    {
      "inputs": [
        {
          "internalType": "address",
          "name": "",
          "type": "address"
        }
      ],
      "name": "permissions",
      "outputs": [
        {
          "internalType": "bool",
          "name": "",
          "type": "bool"
        }
      ],
      "stateMutability": "view",
      "type": "function"
    },
    {
      "inputs": [
        {
          "internalType": "address",
          "name": "provider",
          "type": "address"
        }
      ],
      "name": "grantAccess",
      "outputs": [],
      "stateMutability": "nonpayable",
      "type": "function"
    },
    {
      "inputs": [
        {
          "internalType": "address",
          "name": "provider",
          "type": "address"
        }
      ],
      "name": "revokeAccess",
      "outputs": [],
      "stateMutability": "nonpayable",
      "type": "function"
    },
    {
      "inputs": [
        {
          "internalType": "address",
          "name": "provider",
          "type": "address"
        }
      ],
      "name": "hasAccess",
      "outputs": [
        {
          "internalType": "bool",
          "name": "",
          "type": "bool"
        }
      ],
      "stateMutability": "view",
      "type": "function"
    }
  ],
  "bytecode": "0x608060405234801561000f575f80fd5b50335f806101000a81548173ffffffffffffffffffffffffffffffffffffffff021916908373ffffffffffffffffffffffffffffffffffffffff1602179055506105a78061005c5f395ff3fe608060405234801561000f575f80fd5b5060043610610055575f3560e01c806301e88208146100595780630ae5e7391461008957806385e68531146100a557806395a078e8146100c1578063bd96bd20146100f1575b5f80fd5b610073600480360381019061006e919061044d565b61010f565b6040516100809190610492565b60405180910390f35b6100a3600480360381019061009e919061044d565b61012c565b005b6100bf60048036038101906100ba919061044d565b610253565b005b6100db60048036038101906100d6919061044d565b61037a565b6040516100e89190610492565b60405180910390f35b6100f96103cc565b60405161010691906104ba565b60405180910390f35b6001602052805f5260405f205f915054906101000a900460ff1681565b5f8054906101000a900473ffffffffffffffffffffffffffffffffffffffff1673ffffffffffffffffffffffffffffffffffffffff163373ffffffffffffffffffffffffffffffffffffffff16146101b9576040517f08c379a00000000000000000000000000000000000000000000000000000000081526004016101b090610553565b60405180910390fd5b6001805f8373ffffffffffffffffffffffffffffffffffffffff1673ffffffffffffffffffffffffffffffffffffffff1681526020019081526020015f205f6101000a81548160ff0219169083151502179055508073ffffffffffffffffffffffffffffffffffffffff167fdeb5c31899474fe8c086c95ff9344480d19365676a6a1d22d37bb8e3e7c0ef1860405160405180910390a250565b5f8054906101000a900473ffffffffffffffffffffffffffffffffffffffff1673ffffffffffffffffffffffffffffffffffffffff163373ffffffffffffffffffffffffffffffffffffffff16146102e0576040517f08c379a00000000000000000000000000000000000000000000000000000000081526004016102d790610553565b60405180910390fd5b5f60015f8373ffffffffffffffffffffffffffffffffffffffff1673ffffffffffffffffffffffffffffffffffffffff1681526020019081526020015f205f6101000a81548160ff0219169083151502179055508073ffffffffffffffffffffffffffffffffffffffff167f1b9b72fde9da721e70e6aca3b0cf4cbe73e82765ef1f280157740376531bfdd860405160405180910390a250565b5f60015f8373ffffffffffffffffffffffffffffffffffffffff1673ffffffffffffffffffffffffffffffffffffffff1681526020019081526020015f205f9054906101000a900460ff169050919050565b5f8054906101000a900473ffffffffffffffffffffffffffffffffffffffff1681565b5f80fd5b5f73ffffffffffffffffffffffffffffffffffffffff82169050919050565b5f61041c826103f3565b9050919050565b61042c81610412565b8114610436575f80fd5b50565b5f8135905061044781610423565b92915050565b5f60208284031215610462576104616103ef565b5b5f61046f84828501610439565b91505092915050565b5f8115159050919050565b61048c81610478565b82525050565b5f6020820190506104a55f830184610483565b92915050565b6104b481610412565b82525050565b5f6020820190506104cd5f8301846104ab565b92915050565b5f82825260208201905092915050565b7f4f6e6c79207468652070617469656e742063616e20706572666f726d207468695f8201527f7320616374696f6e2e0000000000000000000000000000000000000000000000602082015250565b5f61053d6029836104d3565b9150610548826104e3565b604082019050919050565b5f6020820190508181035f83015261056a81610531565b905091905056fea264697066735822122068eabe131a877ae688d4485c63e861aa06247ace683e7434edfc39b62438ef6d64736f6c63430008150033",
  "immutableReferences": {},
  "source": "// SPDX-License-Identifier: MIT\r\npragma solidity ^0.8.0;\r\n\r\ncontract PatientPermissions {\r\n    address public patient;\r\n    mapping(address => bool) public permissions;\r\n\r\n    event AccessGranted(address indexed provider);\r\n    event AccessRevoked(address indexed provider);\r\n\r\n    constructor() {\r\n        // Set the patient as the contract deployer\r\n        patient = msg.sender;\r\n    }\r\n\r\n    // Modifier to ensure only the patient can grant or revoke access\r\n    modifier onlyPatient() {\r\n        require(msg.sender == patient, \"Only the patient can perform this action.\");\r\n        _;\r\n    }\r\n\r\n    // Grant access to a healthcare provider\r\n    function grantAccess(address provider) public onlyPatient {\r\n        permissions[provider] = true;\r\n        emit AccessGranted(provider);\r\n    }\r\n\r\n    // Revoke access from a healthcare provider\r\n    function revokeAccess(address provider) public onlyPatient {\r\n        permissions[provider] = false;\r\n        emit AccessRevoked(provider);\r\n    }\r\n\r\n    // Check if a provider has access\r\n    function hasAccess(address provider) public view returns (bool) {\r\n        return permissions[provider];\r\n    }\r\n}",
  "sourcePath": "C:\\Users\\nathi\\patient_permission\\contracts\\patient.sol",
  "compiler": {
    "name": "solc",
    "version": "0.8.21+commit.d9974bed.Emscripten.clang"
  },
  "schemaVersion": "3.4.16",
  "updatedAt": "2024-09-01T17:57:58.756Z",
  "devdoc": {
    "kind": "dev",
    "methods": {},
    "version": 1
  },
  "userdoc": {
    "kind": "user",
    "methods": {},
    "version": 1
  }
}